{
  "contractName": "Bet",
  "abi": [
    {
      "constant": true,
      "inputs": [],
      "name": "getTakerGuess",
      "outputs": [
        {
          "name": "",
          "type": "uint256"
        }
      ],
      "payable": false,
      "stateMutability": "view",
      "type": "function"
    },
    {
      "constant": false,
      "inputs": [
        {
          "name": "_betAmount",
          "type": "uint256"
        },
        {
          "name": "_guess",
          "type": "uint256"
        }
      ],
      "name": "takeBet",
      "outputs": [],
      "payable": true,
      "stateMutability": "payable",
      "type": "function"
    },
    {
      "constant": true,
      "inputs": [],
      "name": "getOriginatorGuess",
      "outputs": [
        {
          "name": "",
          "type": "uint256"
        }
      ],
      "payable": false,
      "stateMutability": "view",
      "type": "function"
    },
    {
      "constant": true,
      "inputs": [],
      "name": "getBetAmount",
      "outputs": [
        {
          "name": "",
          "type": "uint256"
        }
      ],
      "payable": false,
      "stateMutability": "view",
      "type": "function"
    },
    {
      "constant": false,
      "inputs": [
        {
          "name": "_betAmount",
          "type": "uint256"
        },
        {
          "name": "_guess",
          "type": "uint256"
        }
      ],
      "name": "createBet",
      "outputs": [],
      "payable": true,
      "stateMutability": "payable",
      "type": "function"
    }
  ],
  "bytecode": "0x606060405260008055600060015560006002556000600355341561002257600080fd5b6101be806100316000396000f30060606040526004361061006d576000357c0100000000000000000000000000000000000000000000000000000000900463ffffffff1680630c4fb5fb14610072578063daf155f41461009b578063e7871098146100bc578063fde41e29146100e5578063fff058e61461010e575b600080fd5b341561007d57600080fd5b61008561012f565b6040518082815260200191505060405180910390f35b6100ba6004808035906020019091908035906020019091905050610139565b005b34156100c757600080fd5b6100cf61014f565b6040518082815260200191505060405180910390f35b34156100f057600080fd5b6100f8610159565b6040518082815260200191505060405180910390f35b61012d6004808035906020019091908035906020019091905050610162565b005b6000600254905090565b60005482141561014b57806002819055505b5050565b6000600154905090565b60008054905090565b816000819055506001600a60014303406001900481151561017f57fe5b06016003819055508060018190555050505600a165627a7a7230582064e18d1f6e35bda045880e71ee3e0fcabda0befd095f98897f39677ea0efcb660029",
  "source": "pragma solidity ^0.4.8;\n  contract Bet {\n\n    uint betAmount = 0;\n    uint originatorGuess = 0;\n    uint takerGuess = 0;\n    uint randomNumber = 0;\n\n    struct JediBet {\n      uint guess;\n    }\n\n    JediBet[] jediBets;\n\n    function createBet(uint _betAmount, uint _guess) public payable {\n      betAmount = _betAmount;\n      randomNumber = uint(block.blockhash(block.number-1))%10 + 1;\n      originatorGuess = _guess;\n    }\n\n    function takeBet(uint _betAmount, uint _guess) public payable {\n      if(_betAmount == betAmount) {\n      takerGuess = _guess;\n      }\n    }\n\n    function getBetAmount() public view returns (uint) {\n      return betAmount;\n    }\n\n     function getOriginatorGuess() public view returns (uint) {\n       return originatorGuess;\n     }\n\n     function getTakerGuess() public view returns (uint) {\n        return takerGuess;\n     }\n  }",
  "sourcePath": "/Users/macuser/Projects/Solidity/JediBet/contracts/Bet.sol",
  "compiler": {
    "name": "solc",
    "version": "0.4.18+commit.9cf6e910.Emscripten.clang"
  },
  "schemaVersion": "1.0.1",
  "updatedAt": "2017-12-21T19:35:17.979Z"
}